:02000000202BB3
:0400060000000800EE
:10000A00083083120313FC002330FD00FD0B0B287C
:06001A00FC0B0B2808009E
:10002000103083120313FD00FD0B1428000008009C
:1000300083120313C81B1E2886111F288615481B10
:100040002328061124280615C81A282886102928CE
:100050008614481A2D2806102E280614381832281F
:10006000061633280612861603208612C8193A2867
:1000700086113B28861548193F2806114028061589
:10008000C8184428861045288614481849280610A0
:100090004A28061438184E2806164F2806128616C7
:1000A00003208612381C56280520572810200800E7
:0E00B0008312031337088A0036088200080006
:0E00BE00073083120313FD00FD0B63280800BA
:1000CC008312031338104708C8001820381408008E
:1000DC0083120313FB01FA01F901F801A001730D5E
:1000EC00F80D7408F8027508031C750FF9027608F0
:1000FC00031C760FFA027708031C770FFB02000132
:10010C00031C0130A002F30D0730FC00730DF80D39
:10011C00F90DFA0DFB0DA00D7408731CA728F8023D
:10012C007508031C750FF9027608031C760FFA028A
:10013C007708031C770FFB020001031C0130A0029F
:10014C00B828F80775080318750FF907760803180F
:10015C00760FFA0777080318770FFB0700010318CF
:10016C000130A007F30DFC0B8C28720DF80DF90D66
:10017C00FA0DFB0DA00D7408731CD628F802750837
:10018C00031C750FF9027608031C760FFA02770828
:10019C00031C770FFB020001031C0130A002E728AF
:1001AC00F80775080318750FF90776080318760F0A
:1001BC00FA0777080318770FFB07000103180130C3
:1001CC00A007F20D0730FC00720DF80DF90DFA0DB9
:1001DC00FB0DA00D7408721C0529F8027508031C90
:1001EC00750FF9027608031C760FFA027708031CC8
:1001FC00770FFB020001031C0130A0021629F8073F
:10020C0075080318750FF90776080318760FFA07A7
:10021C0077080318770FFB07000103180130A007BC
:10022C00F20DFC0BEA28710DF80DF90DFA0DFB0D12
:10023C00A00D7408721C3429F8027508031C750F84
:10024C00F9027608031C760FFA027708031C770F65
:10025C00FB020001031C0130A0024529F8077508B8
:10026C000318750FF90776080318760FFA07770845
:10027C000318770FFB07000103180130A007F10DDD
:10028C000730FC00710DF80DF90DFA0DFB0DA00DEA
:10029C007408711C6329F8027508031C750FF902A8
:1002AC007608031C760FFA027708031C770FFB0203
:1002BC000001031C0130A0027429F807750803180B
:1002CC00750FF90776080318760FFA0777080318E5
:1002DC00770FFB07000103180130A007F10DFC0B91
:1002EC004829700DF80DF90DFA0DFB0DA00D7408D1
:1002FC00711C9229F8027508031C750FF902760817
:10030C00031C760FFA027708031C770FFB0200011F
:10031C00031C0130A002A329F80775080318750FF8
:10032C00F90776080318760FFA0777080318770F82
:10033C00FB07000103180130A007F00D0730FC008B
:10034C00700DF80DF90DFA0DFB0DA00D7408701C55
:10035C00C129F8027508031C750FF9027608031CF5
:10036C00760FFA027708031C770FFB020001031CBF
:10037C000130A002D229F80775080318750FF90788
:10038C0076080318760FFA0777080318770FFB0720
:10039C00000103180130A007F00DFC0BA629701802
:1003AC00E5297408F80775080318750FF90776081E
:1003BC000318760FFA0777080318770FFB07080066
:1003CC00FF3083120313B900FF30BA00FF30BB00BB
:1003DC00FF30C3309F05C0309F0083169F178312D8
:0403EC001F140800D2
:1003F0000A2A803083120313C3001D2AC030C300B1
:100400001D2A9430C3001D2AD430C3001D2A803019
:10041000C3001D2A831203134308013A0319F92963
:100420004308023A0319FE294308033A0319012A33
:100430004308043A0319042A072A4403F000430836
:10044000F0077008C3007008C80018203810C601F3
:1004500046084507840000080319362A4608450760
:1004600084000008C7006620C60A282A381408003D
:10047000831203132230FC00F801F901FA01FB0199
:10048000FC0303196E2A0310FB0CFA0CF90CF80C90
:10049000F30CF20CF10CF00C031C402AFC030319C2
:1004A000602A7408F80775080318750FF9077608AD
:1004B0000318760FFA0777080318770FFB07442A0B
:1004C0007408F80775080318750FF90776080318FC
:0E04D000760FFA0777080318770FFB0708006E
:1004DE008316031386120612061086100611861155
:1004EE00831286120612861106118610061005203A
:1004FE000520052086140614861603208612052074
:10050E0086160320861205208616032086120520E5
:10051E0006108616032086120520861603208612E4
:10052E00861086158616032086120520861106145F
:10053E0086160320861206108616032086120520C4
:10054E0086160320861206148616032086120520B0
:10055E0006108616032086128615061586140614B6
:0C056E00861603208612052038140800B1
:10057A00CF2A803083120313C300E22AC030C3009B
:10058A00E22A9430C300E22AD430C300E22A80303F
:10059A00C300E22A831203134308013A0319BE2A4D
:1005AA004308023A0319C32A4308033A0319C62A1D
:1005BA004308043A0319C92ACC2A4403F000430821
:1005CA00F0077008C30038147008C80018203810E3
:0A05DA004508C80018203814080076
:1005E40058208A110A128000840AB60A0319B70A2D
:0805F400F003031DF22A0800C8
:1005FC00C330831203139F05C0309F004308F000E3
:10060C00F00D7010F00D701070089F0483169F177A
:10061C0083121F145F209F149F1C162B0000122B9B
:10062C001F101E08F100F00183161E08F0040030A4
:04063C00F1040800BD
:10064000613083120313A1007230A2007130A30045
:100650007530A4006930A5007430A6006530A7008D
:100660006330A8007430A9007530AA007230AB0066
:100670006130AC00AD017630AE006F30AF006C3051
:10068000B0007430B1006930B2006F30B300733025
:10069000B400B501043083160317880089010130C6
:1006A00003138500860187018801E6216F220C3043
:1006B000C80018200130C80018200230C300FE22F4
:1006C00070088312BD007108BE000130C300023003
:1006D000C4002130C500F8210230C3000130C4003D
:1006E0002E30C500F8213D08F0003E08F100F2016F
:1006F000F3018830F4001330F500F601F7013822D9
:100700007008BF007108C0007208C1007308C20001
:10071000FF30F4000330F500F601F7016E20700899
:10072000BF007108C0007208C1007308C200E83041
:10073000F4000330F500F601F7016E207008BC00EC
:100740000230C3000930C40070082E3EC500BD222F
:100750002E30C70066206430F400F501F601F70181
:100760003F08F0004008F1004108F2004208F300A1
:100770006E200A30F400F501F601F7016E207808CA
:10078000F0007908F1007A08F2007B08F3007008A5
:10079000BC007008303EC70066200A30F400F50146
:1007A000F601F7013F08F0004008F1004108F200AF
:1007B0004208F3006E200A30F400F501F601F7015B
:1007C0006E207808F0007908F1007A08F2007B08C2
:1007D000F3007008BC007008303EC70066200A3085
:1007E000F400F501F601F7013F08F0004008F100C0
:1007F0004108F2004208F3006E207808F000790802
:10080000F1007A08F2007B08F3007008BC00700861
:10081000303EC70066205630C70066200230FC001C
:100820004B30FD00FD0B122CFC0B122C5D2B172CFA
:04400E00D2230007B2
:00000001FF
